:020000040800F2
:10000000F8060020890100081F0E0008310D0008C5
:100010001D0E00088F0200086B0F00080000000092
:10002000000000000000000000000000230E000897
:100030009102000800000000210E0008250E0008B3
:10004000A3010008A3010008A3010008A301000800
:10005000A3010008A3010008A3010008A3010008F0
:10006000A3010008A3010008A3010008A3010008E0
:10007000A3010008A3010008A3010008A3010008D0
:10008000A3010008A3010008A3010008A3010008C0
:10009000A3010008A3010008A3010008A3010008B0
:1000A000A3010008A3010008A3010008A3010008A0
:1000B000A3010008A3010008A3010008A301000890
:1000C000A3010008A3010008A3010008A301000880
:1000D000A3010008A3010008A3010008A301000870
:1000E00095020008A3010008A301000800F002F82F
:1000F00000F03AF80AA090E8000C82448344AAF188
:100100000107DA4501D100F02FF8AFF2090EBAE885
:100110000F0013F0010F18BFFB1A43F0010318473B
:10012000F014000010150000103A24BF78C878C100
:10013000FAD8520724BF30C830C144BF04680C60ED
:10014000704700000023002400250026103A28BF35
:1001500078C1FBD8520728BF30C148BF0B60704739
:100160001FB51FBD10B510BD00F058F81146FFF7C0
:10017000F7FF00F00BFF00F076F803B4FFF7F2FF93
:1001800003BC00F07DF8000009488047094800479B
:10019000FEE7FEE7FEE7FEE7FEE7FEE7FEE7FEE737
:1001A000FEE7FEE704480549054A064B7047000094
:1001B000850E0008ED000008F8000020F806002079
:1001C000F8020020F80200204FF0000200B51346AC
:1001D00094469646203922BFA0E80C50A0E80C5067
:1001E000B1F12001BFF4F7AF090728BFA0E80C5018
:1001F00048BF0CC05DF804EB890028BF40F8042B11
:1002000008BF704748BF20F8022B11F0804F18BF7D
:1002100000F8012B7047704770477047754600F033
:100220002BF8AE4605006946534620F00700854688
:1002300018B020B5FFF7B6FFBDE820404FF000062C
:100240004FF000074FF000084FF0000B21F00701BE
:10025000AC46ACE8C009ACE8C009ACE8C009ACE801
:10026000C0098D46704710B50446AFF300802046A4
:10027000BDE81040FFF781BF00487047980000209C
:1002800001491820ABBEFEE7260002007047FEE7DA
:100290007047000070B5154A116815480023416089
:1002A000136040F6B832914203D3012141800380AC
:1002B00016E04288012A13D10E4D048835F8142027
:1002C000521A00D552420A2A01DD25F81410641C86
:1002D000A1B20180082903D34380038000F068FEA7
:1002E000BDE870404FF4805000F01CB82408004076
:1002F000000000206800002072B6FEE770B50446DA
:1003000000F00CF90546601C02D004480078044453
:1003100000F004F9401BA042FAD370BD0800002091
:1003200070470000044910B50A68024202D0086014
:10033000FFF7F6FF10BD0000140401402DE9F84F4F
:10034000DFF8B8910024A9F1040B23460F2709F127
:10035000040AABF1040EC9E00125A5402A40AA42D7
:100360007DD1674ED1F804C0ACEB0608B44532D05D
:1003700014DCBCF1030F3AD009DCBCF1000F2AD029
:10038000BCF1010F1CD0BCF1020F31D11DE0BCF15A
:10039000110F17D0BCF1120F2AD119E0B8F5881F40
:1003A00019D006DCB8F5803F15D0B8F5801F1FD1F5
:1003B00011E0B8F5001F0ED0B8F5041F18D10AE0FF
:1003C000CB6815E0CB681B1D12E0CB6808330FE04B
:1003D000CB680C330CE08B682BB1012B4FF008037A
:1003E00003D0456104E0042302E0056100E000233E
:1003F000FF2A01D8064601E000F104064FEA840511
:1004000001D9A5F12005D6F8008007FA05FC28EAF5
:100410000C0803FA05F548EA0508C6F800804D689F
:10042000ED0062D5374DAE6946F00106AE61AD69AB
:1004300024F0030605F001050095334D06EB050C8D
:10044000DCF80850A607360F07FA06F825EA080573
:10045000DFF8B880404503D14FF0000817E044E0D2
:10046000DFF8AC80404502D14FF001080FE0DFF823
:10047000A480404502D14FF0020808E0DFF89880E0
:10048000404502D14FF0030801E04FF0040808FA9C
:1004900006F848EA0508CCF808804D68D9F80060ED
:1004A000ED024D4601D5164300E096432E604D689F
:1004B000DAF80060AD02554601D5164300E09643D8
:1004C0002E604D68DBF80060AD035D4601D5164334
:1004D00000E096432E604D68DEF80060ED0375463F
:1004E00001D5164300E096432E60641C0D682A4631
:1004F000E5407FF431AFBDE8F88F0000080401400B
:1005000000001110001002400000014000080140EE
:10051000000C0140001001400014014001488068B7
:1005200070470000080000200248816802781144EA
:100530008160704708000020074810B5016841F04D
:1005400010010160032000F075F80F2000F006F89C
:1005500000F024F8002010BD0020024070B50D4DC1
:1005600004464FF47A712878B1FBF0F00A49096823
:10057000B1FBF0F000F0BCFA48B9102C07D2002211
:100580002146501E00F036F800206C6070BD01203E
:1005900070BD000008000020140000200C4808B5C1
:1005A000816941F001018161816901F001010091DE
:1005B000C16941F08051C161C06900F08050009074
:1005C0000448416821F0E06141F00071416008BDDC
:1005D0000010024000000140002809DB00F01F026B
:1005E000012191404009800000F1E020C0F8001195
:1005F00070470000F0B40E4B1B680C46C3F3022397
:10060000C3F10705042D00D90425191D072901D2BE
:10061000002300E0DB1E012606FA05F1491E2140F9
:1006200099409E40761E16403143F0BC00F09EBCBF
:100630000CED00E0064900F0070208684FF6FF03E2
:10064000184040EA0220034A104308607047000047
:100650000CED00E00000FA052DE9F0470F4605001B
:1006600061D0434E306800F00700B84209D23068CC
:1006700020F0070038433060306800F00700B842CF
:1006800051D128683B4C810712D5400703D56068DB
:1006900040F4E06060602878000703D5606840F4AB
:1006A000605060606068A96820F0F00008436060F6
:1006B0002878C00728D06868012810D0216802284F
:1006C00010D0890700292EDA616821F00301014367
:1006D0006160FFF723FF804641F288390DE0216811
:1006E0008903EFE78901EDE7FFF718FFA0EB0801A9
:1006F000494502D90320BDE8F0876068696800F0C9
:100700000C00B0EB810FEFD1306800F00700B84269
:100710000BD9306820F0070038433060306800F0B3
:100720000700B84201D00120E5E72878400705D549
:100730006068E96820F4E06008436060287800079A
:1007400006D56068296920F4605040EAC100606005
:1007500000F018F86168084AC1F30311515CC84001
:100760000649086006480068FFF7F8FE0020C2E767
:100770000020024000100240FE1500081400002076
:100780000C0000200E4A51680E4801F00C03042BA7
:1007900011D0082B0FD10C48C1F38343C903C05CAF
:1007A0000AD55168084AC1F34041921E515C054A7E
:1007B0005043B0FBF1F070470449484370470000D4
:1007C0000010024000127A00EE15000800093D00FA
:1007D0002DE9F84F040070D02078C04DC00749D0F3
:1007E0006868C0F38100012807D06868C0F3810001
:1007F000022809D16868C00306D52868800339D566
:1008000060680028E7D035E06068B0F5803F0BD025
:1008100010B1B0F5A02F11D0286820F480302860E6
:10082000286820F4802002E0286840F480302860A6
:10083000606890B1FFF772FE06460AE0286840F44F
:1008400080202860F0E700BFFFF768FE801B642867
:1008500073D828688003F7D50CE0FFF75FFE0646E3
:1008600005E000BFFFF75AFE801B6428F0D8286817
:100870008003F7D420789A4E80074FF001094FF09B
:10088000000839D5686810F00C0F07D06868C0F30D
:100890008100022809D16868C00306D4286880074F
:1008A00014D52069012808D110E02069B0B1C6F83C
:1008B0000090FFF733FE074605E00AE1FFF72EFE42
:1008C000C01B0228C4D828688007F7D5286861694A
:1008D00020F0F80040EAC10028600DE0C6F8008072
:1008E000FFF71CFE074604E0FFF718FEC01B0228B6
:1008F00023D828688007F7D4207800072CD57948BA
:10090000A169D9B1C0F80090FFF708FE074604E0DE
:10091000FFF704FEC01B02280FD8686A8007F7D5CE
:1009200071484FF4FA510068B0FBF1F0009000BF3D
:100930000098411E0091FAD20EE080E0C0F80080DD
:10094000FFF7ECFD074604E0FFF7E8FDC01B0228B7
:1009500075D8686A8007F7D42078400760D5E869C1
:100960000027C00008D4E86940F08050E861E869D9
:10097000012700F0805000905C480168C90513D43D
:100980000168834641F480710160FFF7C7FD82462C
:1009900006E000BFFFF7C2FDA0EB0A0064284ED8B6
:1009A000DBF80000C005F5D5E06801280AD008B1E1
:1009B000052813D0286A20F001002862286A20F058
:1009C000040002E0286A40F001002862E06841F279
:1009D000883B98B1FFF7A2FD82460BE0286A40F001
:1009E00004002862EEE700BFFFF798FDA0EB0A01C4
:1009F00059455AD8286A8007F6D50CE0FFF78EFDD6
:100A0000824605E0FFF78AFDA0EB0A0159454CD864
:100A1000286A8007F6D41FB1E86920F08050E861A9
:100A2000E06988B36968C1F38101022944D00228D2
:100A3000C6F8608004D0FFF771FD044638E034E06A
:100A4000FFF76CFD074604E0FFF768FDC01B0228B6
:100A50002BD828688001F7D4206AB0F5803F05D1F3
:100A60006868A16820F4003008436860D4E9080190
:100A70000843696821F4741108436860C6F86090FF
:100A8000FFF74CFD044606E025E000BFFFF746FDFA
:100A9000001B022809D828688001F7D51BE000BF99
:100AA000FFF73CFD001B022802D90320BDE8F88FA8
:100AB00028688001F4D40EE00128F7D06868226A23
:100AC00000F48031914204D1616A00F470108842D0
:100AD00001D00120EAE70020E8E700000010024012
:100AE0000000424280044242140000200070004096
:100AF00010B5401EB0F1807F01D3012010BD4FF032
:100B0000E02460610F21601700F030FA0020A0613E
:100B100007202061002010BD70B590F83C20012A0C
:100B200026D0012480F83C40022280F83D20036852
:100B30005A689D6822F070060A6832435A600D4B6D
:100B400002689A4208D0B2F1804F05D00A4B9A420F
:100B500002D00A4B9A4204D1496825F08003194318
:100B6000916080F83D40002180F83C10084670BD3F
:100B7000022070BD002C014000040040000800402D
:100B800010B5040003D094F83D0010B107E0012037
:100B900010BD002084F83C00204600F01FF8022021
:100BA00084F83D00211D206800F06EF9012084F8D2
:100BB000460084F83E0084F83F0084F8400084F842
:100BC000410084F8420084F8430084F8440084F82B
:100BD000450084F83D00002010BD000008B5006805
:100BE0000649884208D10648C16941F00401C16143
:100BF000C06900F00400009008BD0000000800403B
:100C00000010024090F83D10012901D001207047EA
:100C1000022180F83D1000680B49884208D0B0F1ED
:100C2000804F05D00949884202D00949884204D141
:100C3000816801F00701062903D0016841F0010134
:100C40000160002070470000002C014000040040BB
:100C50000008004070B5044690F83C0000250128CB
:100C600017D0012684F83C60022084F83D002068FB
:100C7000826822F0770222F47F428260086850285E
:100C800038D00DDC20284FD005DC90B3102811D1CE
:100C90004AE0022070BD302846D040280AD13BE00F
:100CA00060282FD070280DD0B0F5805F03D0B0F54C
:100CB000005F12D0012584F83D60002084F83C00DC
:100CC000284670BDCB68D1E90121206800F018F9F1
:100CD0002068816841F0770109E0CB68D1E9012102
:100CE000206800F00DF92068816841F4804181603E
:100CF000E1E719E0CA684968206800F013F950215B
:100D0000206806E0CA684968206800F01CF9602184
:100D1000206800F0FFF8CEE7CA684968206800F054
:100D200001F940212068F4E7226801461046F0E707
:100D3000FEE7000000B585B00020029003901A483D
:100D4000816941F010018161816901F01001049114
:100D5000816941F020018161816901F020010491E4
:100D6000816941F008018161816901F00801049104
:100D7000816941F0040181618069694600F00400E5
:100D800004904FF480500090084801900848FFF705
:100D9000D5FA002211462820FFF72CFC2820FFF767
:100DA0001BFC05B000BD0000001002400000211037
:100DB000000C014010B586B000241748009401943F
:100DC0000294039404941349059401603F21C0E9FF
:100DD00001144FF6FF71C0E903148461FFF7D0FEE0
:100DE00008B1FFF789FA4FF48050009069460A482D
:100DF000FFF730FF08B1FFF77FFA049404A9064813
:100E00000594FFF789FE002801D0FFF775FA06B0B8
:100E100010BD00000008004020000020FEE7FEE7B3
:100E200070477047FFF780BB30B58FB02821684608
:100E3000FFF7CAF914210AA8FFF7C6F90225012015
:100E4000049000951020059000244FF46010CDE927
:100E5000084007956846FFF7BBFC08B172B6FEE78D
:100E60000F20CDE90A054FF48060CDE90C40022146
:100E70000AA80E94FFF7F0FB002801D072B6FEE737
:100E80000FB030BD70470000F0B50268194B1A4C26
:100E90001A4D4FF08047984205D0B84203D0A04287
:100EA00001D0A84203D122F070064A68324398422A
:100EB00005D0B84203D0A04201D0A84203D122F409
:100EC0004074CA6822434C6922F0800222430260C7
:100ED0008A68C2620A688262984201D10969016324
:100EE000012141610169C90703D0016921F00101B4
:100EF0000161F0BD002C01400004004000080040EA
:100F000010B5846842EA032224F47F440A43224352
:100F1000826010BD826822F070020A4342F007012D
:100F20008160704710B5036A046A24F0010404620A
:100F3000846924F0F00444EA021423F00A020A430C
:100F40008461026210BD10B5036A046A24F01004C3
:100F50000462846923F0A00324F4704444EA02325A
:100F600043EA01118261016210BDFEE70907090E23
:100F7000002804DB00F1E02080F80014704700F046
:100F80000F0000F1E02080F8141D7047FFF7D4FA3D
:100F9000FFF74AFFFFF7CEFEFFF70CFF0348FFF70E
:100FA00031FE0A20FFF7AAF9FBE70000200000202D
:100FB0002DE9F05F1D480024DFF87880D0E9009A21
:100FC0001B48B0F80EB006E0072C04D1CB4527D063
:100FD000D9460AF1010A1648C8224FF47A7130F84E
:100FE000140058F82450A0F57A70504390FBF1F0AB
:100FF0006438401B00F0FBF80F4A104B00F00EF96C
:1010000007460E46284600F0F2F83A46334600F00E
:1010100017F800F0BDF848F82400641C082CD3DB56
:101020000248C0E9009ABDE8F09F000018000020C7
:1010300068000020780000209A9999999999E93FD1
:1010400010B591EA030F48BF83F0004300F1EC8133
:10105000841A71EB030C05D2121943EB0C03001B2D
:1010600061EB0C01DFF824E14FEA1154A4EB135CAF
:101070001EEA430F18BF9EEA445F73D023EA0E03B3
:10108000DCF1200E21EA045143F4801332D322FA1A
:101090000CFE10EB0E0023FA0CFE41EB0E01CCF11E
:1010A000200E03FA0EFE10EB0E0051F10001B1F517
:1010B000801FCCF1200E32D201EB045112FA0EF255
:1010C000BDE8104058BF7047401C38BF5FEA42027D
:1010D00018BF7047002814BF20F0010041F1000143
:1010E0004FEA410313F5001F38BF7047A1F1C0411B
:1010F00000F08CB9012A43EB0302ACF1200CDCF1C7
:101100001F0E32BF4FF0000E23FA0CF310EB03005A
:1011100041EB0451B4EB115FD0D0A1EB045101F5C8
:10112000801149085FEA300001EB04510ED350F101
:10113000000038BF12FA0EFE08D1BDE81040C9E722
:10114000401C38BF5FEA4202CAD1C3E7BDE8104085
:101150004FEA410313F5001F38BF7047A1F1C041AA
:1011600000F054B99EEA445F08D011EA5E0FBDE872
:10117000104004BF01F0004100207047BDE810405E
:1011800070B500F0F5F800BF64FBBE3E0000E0FF64
:101190004FEA41034FEA5353A3F58063D3F11E0393
:1011A000C8BFD3F1210C0CDD4FF0004242EAC1224E
:1011B00042EA505232FA03FC8CEAE17CACEBE1707B
:1011C0007047102BC4BF0020704703F5787CBCF13A
:1011D000FF3F04D06FF0004282EA2100704770B5F3
:1011E00000F0C6F84992248000207047F2E710F022
:1011F000004248BF4042B0FA80F310FA03F10AD02F
:10120000C3F11D0303F580634FEA415002EB035223
:1012100002EBD12170474FF000007047DFF848C162
:1012200070B51CEA111E1EBF1CEA13159EEA0C0FB6
:1012300095EA0C0F00F06F8081EA030423EA4C1357
:101240004EEAD47E21EA4C1141F4801143F480131C
:10125000AE44A1FB024CA0FB0365AEF17F7E3619C4
:1012600055EB0C05A1FB034C4CF10003A0FB021C49
:1012700016EB0C06654153F10003094218BF46F016
:10128000010613F4007F0BD14FEA03314FEA05301A
:10129000340341EA155140EA16506FF003020AE0A8
:1012A0004FEAC3214FEAC520F40241EA555140EA12
:1012B00056506FF0020202EB2E4201EB025585EA16
:1012C000CE710AD05FEA440C18BF24F0004450F1FC
:1012D000000041F1000120EAD47040F2FE7C62453A
:1012E00000D270BDA84214BF4FF080444FF040447C
:1012F000002E08BF0024BEF1806FA8BFA1F1C0413D
:10130000BDE8704080F282804FF0000001F1C041E2
:1013100001F0004170479EEA0C0F0CEA131518BF4C
:1013200095EA0C0F06D04FF0000081EA030E0EF094
:10133000004170BD00F01CF88900013E00F007B8C4
:1013400000F009B84FEA430C5FEA5C5C08D081EA20
:10135000030100F05BB84FEA410C5FEA5C5CF6D138
:101360004FF00000014970470000FF070000F87FC0
:101370000EF1020E2EF0030E5EF8046B364205D419
:10138000012A43EB030515F5001F12D8012841EB94
:10139000010C1CF5001F0CD80ED14FEAD17C15F5BD
:1013A000001F0CEB4C0C0CF1020C08BF4CEBD37C77
:1013B00004E04FF0080C01E04FEAD37C0CEB4C0545
:1013C00026FA05F606F00706B6F1040C06D20EEB77
:1013D000860CBDE870404CF0010C6047DFE80CF073
:1013E000090B02024FF000414FF00000A1F500216F
:1013F00070BD19461046012851EB010418BFD4F501
:10140000001484BF002001F0004170BD0808A0F561
:1014100000114FEA3101704710B591EA030F48BF40
:1014200083F000433FF514AE841A71EB030C07D22E
:1014300012198CF0004C43EB0C03001B61EB0C0108
:10144000DFF8A4E14FEA1154A4EB135C1EEA430F4A
:1014500018BF9EEA445F00F0B08023EA6E03524258
:1014600021EA0451C3EB6E0338BF5B1EDCF1200E92
:1014700025D322FA0CFE10EB0E0043FA0CFE41EBD2
:101480000E01CCF1200E03FA0EFE10EB0E0051F10E
:101490000001CCF1200E29D412FA0EF201EB045116
:1014A000BDE8104058BF7047401C1CBFB2F1004F50
:1014B000704700280CBF491C20F00100704712EB58
:1014C000020E43EB030218BF4FF0010E4EEA420238
:1014D000ACF1200CDCF11E0E54D943FA0CFE10EBDB
:1014E0000E0051F1FF31CCF11E0ED5D50EF1010EDB
:1014F00012FA0EFE404141EB010101EB445C5FEA50
:101500005C5C10D910EBDE7001EB045138BFBEF10A
:10151000004FBDE8104018BF704700280CBF491CA1
:1015200020F00100704730D24FEAD42C11F50011A1
:1015300024F400641BD0B1FA81F20B3AA41AA41E61
:10154000D2F12003914030FA03F31943904001EBAC
:10155000CC71002C01EB0451BDE81040A8BF7047CE
:1015600001F1C0414FF0000001F000417047B0FAB6
:1015700080F310FA03F100D110BDE41A173C4805BE
:10158000C90AE4E701EB045110BD491001EB045115
:10159000BDE810404FEA300002E04FF00001704714
:1015A0004A0008BF0042F8D0B2F5001F28BF7047BC
:1015B00001F000414FF0000070479EEA445F07D001
:1015C00011EA5E0FBDE8104004BF00210020704703
:1015D000BDE8104070B5FFF7CBFE00BF40DFF63E20
:1015E00083F00041104670470000E0FF0102020353
:1015F0000405060708090A0B0C0D0E0F1010000059
:1016000000000000000001020304060708090000B2
:10161000301600080000002020000000280100080B
:101620005016000820000020D806000044010008E1
:101630000000000000000000010000001000000099
:101640000000000000127A0000000000000000000E
:04000005080000ED02
:00000001FF
